:020000040800F2
:10000000681F00200102000805020008070200081E
:10001000090200080B0200080D02000800000000A1
:100020000000000000000000000000000F020008B7
:100030001102000800000000130200081502000869
:10004000170200081702000817020008170200082C
:10005000170200081702000817020008170200081C
:10006000170200081702000817020008170200080C
:1000700017020008170200081702000817020008FC
:1000800017020008170200081702000817020008EC
:1000900017020008170200081702000817020008DC
:1000A00017020008170200081702000817020008CC
:1000B00017020008170200081702000817020008BC
:1000C00017020008170200081702000817020008AC
:1000D0001702000869080008170200081702000844
:1000E000170200081702000817020008170200088C
:1000F000170200081702000817020008170200087C
:10010000170200081702000817020008170200086B
:10011000170200081702000817020008170200085B
:10012000170200081702000817020008170200084B
:1001300000F002F800F04DF80AA090E8000C8244AC
:100140008344AAF10107DA4501D100F042F8AFF289
:10015000090EBAE80F0013F0010F18BFFB1A43F0A5
:10016000010318470039000020390000103A24BF6D
:1001700078C878C1FAD8520724BF30C830C144BF0C
:1001800004680C607047000000230024002500264E
:10019000103A28BF78C1FBD8520728BF30C148BFEA
:1001A0000B607047642901F00382732901F0938387
:1001B000002070471FB503F0C2F901F0FFFB0400F7
:1001C0000020002102F0D0F9401C60601FBD10B576
:1001D00010BD01F0CDFB1146FFF7ECFF00F056F922
:1001E00001F0F2FB03B4FFF7F2FF03BC00F02EFBBB
:1001F00030BF72B6704762B6704780F308887047A8
:1002000008480047FEE7FEE7FEE7FEE7FEE7FEE7F9
:10021000FEE7FEE7FEE7FEE703480449044A054B14
:10022000704700003101000868190020681F002095
:10023000681B0020681B002086490143864A116024
:100240007047864A0A400243854B1A6070472DE981
:10025000F04104460E4617462002FFF7EDFFC4F1B9
:10026000040007FA00F50F2020413040054305F057
:100270000F05DA1703EBD26252114FF0E02C0CEBB2
:100280008202D2F8002119464FEAE37C03EBDC6CD2
:100290004FEA6C1CA3EB4C184FF0010C0CFA08FC55
:1002A00042EA0C0218464FEAE37C03EBDC6C4FEAAF
:1002B0006C1C4FF0E02808EB8C0CCCF8002169484E
:1002C000C05C40EA05106749C854BDE8F08170B5CC
:1002D000034614460A46CE1701EB9676B010CE17A9
:1002E00001EB9676B610A1EB8606B606350E5E4A91
:1002F000926942F001025C4EB2614FEAB63252F8A6
:1003000020200F26AE4022EA0606584A42F8206016
:1003100052F8202003FA05F61643544A42F82060AA
:10032000534A12684FF0010606FA01F642EA060245
:10033000504EC6F800245CB14F4A16684FF00102D7
:1003400002FA01F246EA02064A4AC2F808640AE0E2
:100350004A4A12684FF0010606FA01F642EA06021E
:10036000444EC6F80C2470BD30B5044600253E4806
:10037000006840F001003C49086008464068404978
:10038000084039494860084600683E4908403649F7
:1003900008600846006820F480200860084640682D
:1003A00020F4FE0048604FF41F0088604FF41041B5
:1003B0004FF00060FFF745FF2B48006840F48030A5
:1003C0002949086000BF28480068400CFBD04FF462
:1003D000806025494860A01EC4B20846406840EAD3
:1003E000844048600846406840F4803048602648B1
:1003F000006840F03200244908601B48006840F063
:1004000080701949086000BF17480068400EFBD093
:100410001548406840F002001349486004E0124863
:100420004068850805F00305022DF8D130BD01466E
:1004300049060D4A926942F001020B4B9A610D4A3E
:10044000526822F0E0620B4B5A601A4652680A4327
:100450005A6070470000FA050CED00E080FFFF1FB6
:1004600008ED00E000E400E0001002400800014058
:100470000004014000000140080401400C04014058
:100480000000FFF8FFFFF6FE002002400920FFF702
:100490006BFF482000F07AF94FF4E131482000F07A
:1004A000EFF900F0E5FC00BFFEE70000B248B349F9
:1004B0004860B34848600120704770B50446AF48B3
:1004C000056915F0800F11D000BFAC48056915F023
:1004D000800F00D106E0012000F06EF9601E84B2AA
:1004E000002CF2D100BF0CB9FF2070BD0020FCE74A
:1004F000A248006940F08000A049086170479F4809
:10050000C16811F0010F01D00120704711F0040FF4
:1005100007D09A48C06820F00400984AD0600220B2
:10052000F3E711F0100F07D09448C06820F01000D6
:10053000924AD0600320E8E711F0200F07D08F48DF
:10054000C06820F020008D4AD0600020DDE7002048
:10055000DBE770B5044600BFFFF7D1FF0546012D6C
:1005600000D006E0012000F027F9601E84B2002CC4
:10057000F2D100BF04B9FF25284670BD70B505460D
:1005800045F6FF70FFF7E5FF0446E4B97B480069D4
:1005900040F00200794908614FF0006000EBC5208F
:1005A00048610846006940F04000086145F6FF7068
:1005B000FFF7CFFF0446012C05D07048006920F0FA
:1005C00002006E490861204670BD10B545F6FF7007
:1005D000FFF7BFFF0446BCB96848006940F004005B
:1005E000664908610846006940F04000086145F628
:1005F000FF70FFF7AEFF0446012C05D05F4800698D
:1006000020F004005D490861204610BD70B5054624
:100610000E46FF20FFF79DFF044694B95748006936
:1006200040F00100554908612E80FF20FFF791FF3F
:100630000446012C05D05148006920F001004F49C3
:100640000861204670BD01460888704730B50346F2
:100650000C461546002207E01846FFF7F4FF24F881
:1006600012009B1C501C82B2AA42F5DB30BD2DE962
:10067000F04105460E461746002407E036F81410F0
:100680002846FFF7C3FFAD1C601C84B2BC42F5DBFB
:10069000BDE8F0812DE9F05F80468A461646B8F144
:1006A000006F02D33748804502D90120BDE8F09F92
:1006B000FFF7FCFEFF2800D1F8E7A8F1006B4FEA36
:1006C000DB27CBF34909C9F58064A64200DC344638
:1006D0004BE04FF0006101EBC7204A142A49FFF7B5
:1006E000B5FF00250BE009EB0500274931F81000A4
:1006F000A0F57F41FF3900D003E0681C85B2A54218
:10070000F1DB00BFA54218DAF8B2FFF737FF00258A
:1007100008E03AF8150009EB05011B4A22F8110020
:10072000681C85B2A542F4DB4FF0006101EBC720E5
:100730004A141549FFF79BFF04E022465146404604
:10074000FFF795FFB44200D110E07F1C4FF0000985
:100750000AEB440A08EB4408301B86B2B6F5806FFA
:1007600002DD4FF4806400E03446B2E700BFFFF7DB
:10077000BFFE00209AE700002301674500200240E9
:10078000AB89EFCDFFFF0708980000204FF0E02174
:10079000096921F004014FF0E0221161C21700EB5A
:1007A0005272D210274B1A70194609784FF47A7298
:1007B0005143254A118070470146224A12784A4324
:1007C0004FF0E0235A6100229A611A46126942F002
:1007D00001021A6100BF4FF0E022106910F0010F12
:1007E00002D010F4803FF6D04FF0E022126922F0E0
:1007F00001024FF0E0231A6100229A61704701461E
:10080000114A12884A434FF0E0235A6100229A614C
:100810001A46126942F001021A6100BF4FF0E0224D
:10082000106910F0010F02D010F4803FF6D04FF0A5
:10083000E022126922F001024FF0E0231A61002247
:100840009A6170470000002002000020014600BFAE
:100850007047704700BF384A128812F0400FFAD034
:10086000C2B2364B1A8070473349098811F0200F05
:1008700005D032490988C8B23149A1F80408704747
:100880002DE9F05F05460E46300102F07DFD814600
:100890002C4905FB01F002F077FD8246494602F043
:1008A00091FC0746384602F04FFD84B2204602F024
:1008B0006BFD8346394602F04EFE82464FF083417F
:1008C00002F076FD814602F03FFD8046240104EBF4
:1008D000080084B21C48806940F004001A4988610D
:1008E0000846806940F4804088611848006820F418
:1008F0007F601749C1F804080846D0F8040840F49E
:100900000B60C1F804081048C06840F480400E49EC
:10091000C8600846C06820F48040C8600848A0F855
:1009200008480C48008842F20C0140EA01000949DD
:100930000880BDE8F09F0000003801400438014005
:100940000030014040420F00001002400408014006
:10095000000001400C3801402DE9F05F06460F46CB
:1009600090460024B3463D46A1461CE068784FEA15
:10097000002A287850441FFA80FAAD1C2046611CDA
:100980008CB2274921F810A0B4F5806F07D100245C
:100990004FF480625846FFF77DFE0BF5006B09F1BE
:1009A00002001FFA80F9C145E0D324B122461C4958
:1009B0005846FFF76FFEBDE8F09F70B504460D4640
:1009C00016461848406800F07F40B0F1006F05D12E
:1009D000324629462046FFF7BFFF01E0032070BDE5
:1009E0000020FCE710B50446606800F07F40B0F1DD
:1009F000006F10D120680C490840B0F1005F08D1A9
:100A00002068FFF7FAFB09A000F074FD60688047DA
:100A100003E0022010BD0120FCE70020FAE70000FF
:100A200098080020003000200000FE2F0D0AD5FDA0
:100A3000D4DABCD3D4D8B9CCBCFE2E2E2E00000004
:100A400010B5A34C03E014F8010B00F048F920782E
:100A50000028F8D1207800F042F9002010BD10B530
:100A600000F03CF900F047F900209A4981F886002F
:100A70000120C1F88800002010BD02460020704708
:100A80002DE9F84F0446884691469A46CDF800A0D5
:100A900000270026B3462546404600F020F91020E6
:100AA0008C4981F8850012E18A4890F8850010F0A1
:100AB000080F02D0152000F012F9864890F8850042
:100AC00010F0200F02D0062000F009F9814890F8BC
:100AD000850010F0100F0CD0284600F006F9012810
:100AE00002D10220BDE8F88F00207A4981F8850004
:100AF0001AE0284600F0F9F880B1764890F88600B0
:100B0000401C744981F88600082081F88500084659
:100B100090F88600062807DB0320E3E700206D49F4
:100B200081F8860081F885006A4890F8850010F009
:100B3000010F33D1287801280BD10020654981F8B5
:100B40008600084690F8850040F0010081F8850095
:100B500024E02878042810D127B1FA015E490098D2
:100B6000FFF7FAFE062000F0BAF8062000F0B7F80A
:100B7000062000F0B4F80020B4E70820554981F8B9
:100B80008500084690F88600401C81F886000846DB
:100B900090F88600062801DB0320A3E78FE06D1C98
:100BA000284600F0A2F828B108204A4981F88500BB
:100BB00025468BE0474890F8850010F0020F15D1CC
:100BC00028784449D1F88810C9B2884208D14148F0
:100BD00090F8850040F002003E4981F8850005E06C
:100BE00008203C4981F8850025466FE0B8F1150FD3
:100BF00003D0B8F1430F61D151E0281B83284DD1B8
:100C0000032602E0A05D8344761C832EFAD394F879
:100C100083000BF0FF0188420AD120202D4981F882
:100C200085000846D0F88800401CC1F8880014E010
:100C3000284890F88600401C264981F88600082044
:100C400081F88500084690F88600062801DB03201D
:100C500048E708201F4981F885004FF0000B254622
:100C6000B9F1000F19D1002607E0F01C205C8021AB
:100C700001FB0761184A5054761C802EF5D37F1C67
:100C8000102F09D1FA0114490098FFF765FE00986A
:100C900000F500600090002700BF00BF0EE0281B99
:100CA00084280AD1254620200A4981F88500084673
:100CB000D0F88800401CC1F8880000BF00BF05487C
:100CC00090F8850010F0010F7FF469AF00BFEBE6EC
:100CD0004A3700080800002098100020704710B51F
:100CE0000446204600F00CF810BD10B5044620461E
:100CF00000F00FF810BD10B500F026F810BD000090
:100D000000BF1349098811F0400FFAD0114908803B
:100D1000704770B50546002403E0641C0A20FFF705
:100D20004BFD0B48008810F0200F02D10A48844286
:100D3000F3D30948844201D3012070BD05480088DF
:100D400028704FF00000F8E702480088C0B27047F2
:100D50000038014004380140E093040030B50246F9
:100D60000120002311E01478202C05D023B904467B
:100D7000401C41F8242001231478202C04D1012B9D
:100D800002D1002414700023521C1478002CEAD1E4
:100D9000401E441E0C6030BD70B506460C463A48F5
:100DA0003A49086004E0394800681830374908605B
:100DB00036480068C06838B1344A61681268106803
:100DC00000F0CDFC0028EED130480068C06870B15A
:100DD0002E48006882682D48006841682B480068EA
:100DE0002346C56829480068A847002070BD28A090
:100DF00000F080FB0120F9E770B50446002521468C
:100E000029A000F077FB11E0641E002606E000F048
:100E1000F1F810B10125002403E0761C0DB9642E11
:100E2000F5DB00BF214629A000F064FB002C01DDAA
:100E3000002DE9D0E8B270BD26A000F05BFB30A029
:100E400000F058FB13E039A000F054FB3C4800F0E0
:100E5000A8F83B4944313A48FFF780FF3849086415
:100E60000846006C18B1086C4431FFF795FFEAE7BB
:100E70000A24002C06DB2046FFF7BEFF10B93148DC
:100E8000FFF7B0FDFFF7D8FF60370008940000209F
:100E90000D0A09496E76616C696420636F6D6D613E
:100EA0006E64210A0D00000048697420616E79208B
:100EB0006B657920746F2073746F70206175746F27
:100EC000626F6F743A2025326420000008080825FC
:100ED000326420000A0D23232320202020202076A6
:100EE0007368656C6C202056312E312032303137DA
:100EF0002D30352D32352020202323230D0A0000EC
:100F00000A0D2323232020202020205573652066EE
:100F10006F722053544D333246313033787820206D
:100F200020202020202323230D0A00000A0D5B73BC
:100F300068656C6C4053544D33325D2320000000D3
:100F4000981800200090000810B504460A2C02D121
:100F50000D2000F066F8082C05D1082000F061F89B
:100F6000202000F05EF8204600F05BF8204610BD1F
:100F700010B500F035F804460D2C01D10A2010BD43
:100F80002046FCE710B5044603E014F8010BFFF718
:100F9000DBFF20780028F8D10A20FFF7D5FF0020DA
:100FA00010BD70B505462C460DE02078082804D009
:100FB00014F8010BFFF7C8FF05E0AC4203D914F8A1
:100FC0000109FFF7C1FFFFF7D3FF20700A28ECD11A
:100FD000002020700A20FFF7B7FF284670BD0000F0
:100FE00000BF1448008810F0200FFAD01248008883
:100FF000C0B2704710B5002403E0641C0120FFF765
:10100000FEFB0C48008810F0200F01D10A2CF4DB05
:101010000A2C01DB002010BD074800884FF00100BA
:10102000F9E700BF0349098811F0400FFAD00249DF
:101030000880704700380140043801402DE9F04134
:1010400004460E4617461D46286810B1012820D1D7
:101050000AE005E011A06269216800F04BFA18343B
:10106000E0680028F6D114E000E01834E06828B108
:10107000A968206800F073FB0028F6D1E06820B171
:101080000AA0216900F036FA02E00BA000F032FA63
:1010900000BF00BF0120BDE8F08100000A0D092556
:1010A00073092D2025730D0A000000005573616738
:1010B000653A0925730D0A000963616E277420667D
:1010C000696E642074686520636F6D6D616E642E57
:1010D0000D0A00002DE9F04105460E4617461C4654
:1010E000206820B9044905A000F004FA00BF00BF41
:1010F0000020BDE8F0810000A8C833010A0D097680
:10110000657273696F6E3A2025640D0A0000000055
:101110002DE9F05F82460E4693461C464FF00108CB
:1011200000272068B04203D944A000F0E3F982E030
:10113000206818B948A000F0DDF97CE0206801289B
:1011400002D02068022876D14FA1A06800F007FBEA
:1011500020B14EA1A06800F002FBC8BB20680228A5
:101160000CD1E06800F0ECF80546681C07D148A0F7
:1011700000F0C0F94FF0FF30BDE8F09F494D4AA0A4
:1011800000F0B8F948E04FF00008FFF768FC3EA116
:10119000A06800F0E4FA38B92B4600221521464831
:1011A000FFF76EFC814606E02B46002243214248B1
:1011B000FFF766FC8146B9F1000F0AD0B9F1010FC3
:1011C0000BD0B9F1020F0ED0B9F1030F23D11CE0FF
:1011D00026E03AA000F08EF91DE0FFF731FC3BA0BD
:1011E00000F088F917E0781CC0B2074601463DA020
:1011F00000F080F90A2F05DB4FF0000843A000F053
:1012000079F901E04FF0010805E0FFF719FC45A06E
:1012100000F070F900BF00BFB8F1000FB3D10AE0D1
:1012200046A1A06800F09BFA28B92068022802D1E4
:101230001C48FFF7D7FB01209EE7000009417267B9
:10124000756D656E747320696E7075742065727249
:101250006F72210A0D0000000D0A09506C65617360
:101260006520696E7075742268656C7020786D6F8A
:1012700064656D222067657420666F722068656CF6
:10128000702E0A0D000000004E414B0043524300F7
:101290000A0DB5D8D6B7CAE4C8EBD3D0CEF30D0A41
:1012A00000000000009000080A0DC1ACBDD3D6D0EC
:1012B0002E2E2E0D0A000000080000200A0D737566
:1012C0006363657373210D0A000000000A0D7265E7
:1012D00063696576652074696D656F7574210D0AA3
:1012E00000000000080D636F6E6E65637420746902
:1012F0006D656F7574A3AC74727920746F2072651C
:10130000636F6E6E6563743A202564000A0D636F27
:101310006E6E656374206661696C6564A3A10D0AD5
:10132000000000000A0D7265636F6E6E65637420C5
:101330006661696C6564A3A10D0A000062696E00B4
:101340002DE9F04F89B007464FF0000B384600F00A
:101350001BFA00F0FF0852A1384600F0F2F94045B0
:101360002ED1002629E0B95DA1F1300001F051FB3A
:10137000CDE90401A8F10101881B01F061FB0246DF
:101380000B46CDE900010020484900F0DBFBCDE928
:101390000201DDE9042301F0A3FB04460D46584693
:1013A00001F04EFB814622462B4601F0F3F8CDE9D1
:1013B000060101F001FB8346761C4645D3D340E08D
:1013C0003878302838D1B8F1020F35DB78787828B2
:1013D00002D0787858282FD102262AE0B95DA1F1F1
:1013E000300001F016FB04460D46A8F10101881BF0
:1013F00001F026FB02460B46CDE9000100202B49F7
:1014000000F0A0FB22462B46CDE9020101F068FB6B
:1014100081468A46584601F013FB4A465346CDE9B9
:10142000040101F0B7F8CDE9060101F0C5FA8346E1
:10143000761C4645D2D304E04FF0FF3009B0BDE83A
:10144000F08F5846FAE72DE9F04780460E46914660
:101450001C4600272068B04203D915A000F04AF8C6
:101460001BE0206810B1012816D107E01748FFF7EC
:10147000B9FA074616A000F03DF80DE0A068FFF7A6
:101480005FFF0546681C03D02846FFF7ABFA074606
:101490000FA000F02FF800BF00BF3846BDE8F0876E
:1014A00030313233343536373839000000003040BF
:1014B00009417267756D656E747320696E7075741D
:1014C000206572726F72210A0D0000000090000802
:1014D000B5D8D6B7CAE4C8EBD3D0CEF3BBF2B9CCFB
:1014E000BCFECFF2C1BFB1EDD3D0CEF3210D0A00C7
:1014F000704700000FB4044910B503AA029800F029
:10150000EFF910BC5DF814FB0400002070B5044630
:10151000856900683026C10600D42026C00708D09F
:1015200070BDD4E9012130469047206A00F10100E6
:1015300020626D1EF5D570BD70B5044685690068E2
:10154000C00708D170BDD4E9012120209047206A4E
:1015500000F1010020626D1EF5D570BD70B5054625
:101560000C46012A05D02868800600D5EA690023C8
:1015700002E0012305E05B1C934202D2E05C0028FC
:10158000F9D1A869E618C01AA861286A1844286227
:101590002846FFF7BBFF04E0D5E9012114F8010B51
:1015A0009047B442F8D32846FFF7C6FF70BD00004D
:1015B0002DE9F0418046002610687529414615A5A1
:1015C00012D0AFF30080002803DAC0F1000012A5AA
:1015D00008E0D8F800108A0701D510A502E04907F5
:1015E00004D50FA5012601E0AFF30080002408F127
:1015F000240704E000F086F930313955641C0028D6
:10160000F8D133462A4621464046BDE8F04100F075
:10161000F6B80000000000002D0000002B000000C4
:10162000200000002DE9F05F4FF0000B04468946D2
:101630004FF0010AC0F820B02046E168884798B30F
:10164000252806D0D4E901219047206A401C206259
:10165000F2E7E168204600268847C4F81CB005463A
:101660000027C4F818B02A2D0DD05246A5F130013C
:101670000A292ED2BAF1000F2BD0924604EB87082C
:10168000C8F818101AE059F8041B204604EB87022A
:101690009161E1688847012F05461CD1E069002867
:1016A00024DA26F0200621E048E0D8F8180000EB04
:1016B000800005EB40003038C8F818002046E1688B
:1016C0008847A0F1300105460A2902D2BAF1000F7D
:1016D000EBD1012F0AD02E2D08D12046E168884792
:1016E0007F1C0546022F46F02006BCDBA0690028BF
:1016F00003DA404246F00106A061F00701D026F06F
:101700001006DDB1A5F14100192802D8203546F4B4
:1017100000664A462946204626604E46FEF742FDB0
:1017200050B1012805D0F61D26F0070000F1080988
:1017300082E706F104097FE7284683E7206ABDE8CF
:10174000F09F30B503461D783DB10A4612F8014BB3
:101750001CB1AC42FAD15B1CF5E7181A30BD2DE97B
:10176000F04105460E46002400E0641C285D00F0B0
:1017700039F80746305D00F035F8381A02D1295D96
:101780000029F2D1BDE8F08110B5431C02E010F849
:10179000011B71B18107FAD14FF0013202C88C1AD6
:1017A0008C4314EAC211F9D0C01A0A0603D0C01E35
:1017B00010BDC01A10BD0A0401D0801E10BD090260
:1017C000FCD0401E10BD704770477047704710B581
:1017D00000F0A8F8006810BD10B5044600F0A2F8AB
:1017E000046010BD10B5044600F094F80068005D78
:1017F000C00602D504F1200010BD204610BD2DE921
:10180000F0470D4604469246994600F124080168C7
:10181000880604D5E06921F01001216000E0012074
:101820000027A84201DDA0EB0507A16907EB05022F
:1018300002EB0300A1EB0000A0612068C00602D407
:101840002046FFF763FE002608E0D4E901211AF8DC
:1018500006009047206A401C761C20624E45F4DB4F
:101860002068C0060AD52046FFF750FE06E0D4E9FE
:10187000012130209047206A401C2062381EA7F1C9
:101880000107F4DC07E0D4E9012118F805009047CE
:10189000206A401C2062281EA5F10105F3DC2046C9
:1018A000FFF74AFE21680220090600D40120BDE8A6
:1018B000F08710B5436913B1AFF3008001E0FFF783
:1018C0004DFE012010BD126800F124010A700022B3
:1018D0004A700122EDE711684FF0FF32E9E700009E
:1018E000074B70B50C467B4400F027F805462046B0
:1018F00000F036F810B14FF0FF3070BD284670BDD3
:101900006BEFFFFF4FF00A01B0FBF1F202FB110198
:101910001046704710B500F051F8001D10BD00BF13
:10192000490C000001487047704700BF04190020AF
:1019300001694A1C02610878704700B58FB0CDE993
:1019400001310021059105497944CDE90310114683
:101950006846FFF767FE0FB000BD0000E5FFFFFF20
:10196000C06800F0800070470048704704190020EC
:101970007546FFF7F9FFAE4605006946534620F06D
:101980000700854618B020B5FEF746FCBDE82040AC
:101990004FF000064FF000074FF000084FF0000B2B
:1019A00021F00701AC46ACE8C009ACE8C009ACE8DE
:1019B000C009ACE8C0098D46704700000148704777
:1019C000704700BF241900200446AFF30080204672
:1019D000FEF708FC4FF0013C50F8042B51F8043B93
:1019E0009A4221D1A2EB0C03934313EACC1317D1F3
:1019F00050F8042B51F8043B9A4215D1A2EB0C038A
:101A0000934313EACC130BD150F8042B51F8043B49
:101A10009A4209D1A2EB0C03934313EACC13DBD017
:101A20004FF00000704700BFD01A01BAB1FA81F13F
:101A300001F0180122FA01F0CB40C1F12001DBB224
:101A4000C0B2C01A2CFA01F3D11A914311EAC311A2
:101A5000E6D1704701487047704700BF0819002061
:101A6000490050EAC12018BF04204A0D18BF40F0B9
:101A7000010040F2FF72B2EB515F08BF40F002007C
:101A8000012808BF052070472DE9F0414F1E00EBEB
:101A9000C7010446D1E9000115461E4637F006028B
:101AA0000DD02A46334601F01BF87F1E04EBC70316
:101AB000D3E9002300F06EFD37F00602F1D1022FCA
:101AC00025D0042F13D0062F18BFBDE8F0812A4679
:101AD000334601F005F8D4E90A2300F05BFD2A46FD
:101AE000334600F0FDFFD4E9082300F053FD2A46F9
:101AF000334600F0F5FFD4E9062300F04BFD2A46FB
:101B0000334600F0EDFFD4E9042300F043FD2A46FC
:101B1000334600F0E5FFD4E9022300F03BFD2A46FE
:101B2000334600F0DDFFD4E90023BDE8F04100F0CA
:101B300031BD0000024A0020110701F0BEBD0000C7
:101B400001FDFFFF2DE9F04D16460F460546020048
:101B500094B01C4621F0004123F0004014BF4FF028
:101B6000010C4FF0000C0CEB470CFF4B0CEB030887
:101B70004FEA630CC4452ED85FEA060818BF4FF041
:101B80000108A24608EB44089844F84B434522D884
:101B9000F74B50EA060C02D09F4205D14AB914B067
:101BA00000201946BDE8F08D002A08BF4FF0000C58
:101BB00001D04FF0010C0CEB470313F5001F0AD8BE
:101BC000002E14BF4FF0010C4FF0000C0CEB4A0339
:101BD00013F5001F08D914B032462346284639466B
:101BE000BDE8F04D00F0D6BCDFF888B34FF0000A36
:101BF000002FB8BF584523DADF4B9842A8BF4FF0FB
:101C0000020A1DDADA4B98421ADBDC4B03EB205355
:101C1000142B08DDC3F1340C26FA0CF303FA0CFC88
:101C2000B4450DD108E05EB9C3F1140C20FA0CF3F1
:101C300003FA0CFC844503D103F00103C3F1020A4B
:101C400051EA020321D1002C1FDA002F18BFBAF18C
:101C5000020F02D0BAF1010F0BD00220FFF7BCFD3A
:101C600014B00022BDE8F04D13461046C04900F004
:101C70004BBD0220FFF7B0FD14B02A463B46BDE83D
:101C8000F04D0020BA4900F03FBD33006DD15845FA
:101C900025D107F1804010F5801001BF002A0020F7
:101CA000B34914B008BFBDE8F08DB148814207DBED
:101CB000002CA1BF1846214614B0BDE8F08D07E006
:101CC000201E05DA80F0004114B01846BDE8F08D02
:101CD000AB497944D1E9000114B0BDE8F08DDFF8DB
:101CE00090C2604525D1002C1EDA19B1594511D199
:101CF0004AB119E0F2BB9F4A394614B0002062F3A2
:101D00001E01BDE8F08D0020394614B060F31E01BD
:101D1000BDE8F08D08DA14B03B46BDE8F04D4FF059
:101D20000000614600F0F0BC14B010463946BDE832
:101D3000F08D8B4519DD2346B4F1804F0DD0A3F112
:101D40000053B3F1FF5310D13B1E0EDB14B010460D
:101D5000BDE8F04D194600F0E1BB14B03B463946F2
:101D6000BDE8F04D104600F0BBBE27F00043A2BB1B
:101D700069B100E098E2594530D1002F12DD002C06
:101D8000A1BF0020594614B0BDE8F08D1AE0BAF1A9
:101D9000020F18BF002F15D0BAF1010F12D1002F7A
:101DA00010DA14E01ADA002C09DBBAF1010F4FF057
:101DB00000000CBF73496F4914B0BDE8F08DBAF153
:101DC000010F04D0002014B00146BDE8F08D14B01E
:101DD00000204FF00041BDE8F08DFFE74FF0010C0F
:101DE0000CEBE772039252EA0A020BD0664A904269
:101DF0007DDD664B664A984216DD91420EDC002C72
:101E00001CDB2CE00120FFF7E7FC14B00022BDE84A
:101E1000F04D13461046114600F076BC54488842F7
:101E200002DC002C0ADC1AE08A4202DD002C05DB11
:101E300015E04F4B99421EDD002C10DD0220FFF70C
:101E4000CBFC40F2013200204FF0E04101F035FCC4
:101E5000484A14B061F31E021146BDE8F08D02201D
:101E6000FFF7BAFCFFF766FE414A14B061F31E02A9
:101E70001146BDE8F08D00222846394601F056F89B
:101E8000054688466FF0010201F017FC4FF055320D
:101E9000404B00F059FF2A46434600F021FE002245
:101EA0003D4B00F051FF8B4607462A4643462846E5
:101EB000414600F015FE3A465B4600F011FE8346AF
:101EC0000B914FF0C042354B2846414600F008FECA
:101ED00007460991324A314B58460B9900F000FEF3
:101EE0008B4602902F4A304B2846414600E01AE0CC
:101EF00000F0F6FD5B46029A01F018F883460246B0
:101F00000B460A913846099900F044FB00258846A3
:101F10003A462846099B01F009F85A460A9B00F008
:101F200013FF024677E10020B1F5801F07DA352262
:101F30002846194601F0C1FB05466FF0340000EB5E
:101F40002150A0F2FF300190C1F3130040F07F61F7
:101F500041F04051029115498842D8BF4FF0000B23
:101F600035DD1349814225E0FFFF1F00FFFF0F0011
:101F70000000F03F0000F07F0000404301FCFFFF45
:101F8000BA1B00000000F0FF0000E0410000F04339
:101F9000FFFFEF3F5555D53F0000E03F4715F73FA6
:101FA000FE822B6544DF5DF80BAE543E8E98030035
:101FB0007AB60B00C8BF4FF0010B08DC01984FF058
:101FC000000B401C01900298A0F58010029002992D
:101FD000FF48784400EBCB0005910F90D0E9002337
:101FE000284600F0A3FF00900F980991D0E9002344
:101FF0002846059900F0CEFA02460B460020F54926
:1020000000F082FB0A910B4602460890099900985D
:1020100000F066FD0690F048884600277844029953
:10202000006810904FF0005040EA610000EB8B40D8
:1020300000F500210F980291D0E90023109800F0DC
:1020400075FF2A46059B00F07FFE3A46434600F0A6
:1020500047FD0546059138464146029B109A00F01F
:102060003FFD099B009A00F06FFE2A46059B00F099
:102070005DFF0A9B089A00F033FD069A0E910890C6
:1020800043461046414600F02BFD05460246D34824
:102090000B46099106217844FFF7F6FC099B029153
:1020A00000902A462846194600F01AFD029B009A25
:1020B00000F016FD05460591434638464146069A0E
:1020C00000F068FA0E9B089A00F00AFD2A46059B6C
:1020D00000F060FA059100903A4643463846414682
:1020E00000F0FEFCCDE909100022BD4B00F052FAD1
:1020F000059B009A00F04EFA0D463A46B84B38461A
:1021000000F014FFDDE9093200F010FF059B009A92
:1021100000F01AFE059112902B463A463846414689
:1021200000F0DEFC00900991DDE9051243461298AB
:1021300000F0D6FC804605912B463A460E99089849
:1021400000F0CEFC4246059B00F024FA0A910B46B3
:10215000804602460999009800F01CFA00200F46BC
:102160000546099B009A00F0E1FE42460A9B00F0FA
:10217000EBFD80460B914FF060429A4B2846394662
:1021800000F0AEFC10900091974A964B40460B9998
:1021900000F0A6FC80460691944A954B28463946A5
:1021A00000F09EFC4246069B00F0F4F9914A7A4406
:1021B00002EBCB03D3E9002300F0ECF90691029087
:1021C000019800F026FC0F460890069B029A0099A1
:1021D000109800F0DFF9884A7A4402EBCB0BDBE978
:1021E000002300F0D7F93B46089A00F0D3F9002508
:1021F00088463B462846089A00F098FEDBE9002313
:1022000000F094FE009B109A00F090FE069B029A4C
:1022100000F09AFD02460020069003986D4FAAF147
:102220000103184301D1754F069000200B46029020
:102230003046214600F054FC82468B462346304609
:102240002146029A00F072FE2A46434600F048FCFE
:1022500052465B4600F09EF906468A462A464346A9
:102260002146029800F03CFC04460D463246534697
:1022700000F090F9624A8B46914226DBABEB0203F9
:1022800053EA000210D122462B4600F04FFE804652
:1022900003915C4A5C4B3046514600F07BF9424664
:1022A000039B00F01BFD30D20220FFF795FA40F2AD
:1022B000013200204FF0E04101F0FFF90A463946B3
:1022C00014B062F31E01BDE8F08D504B2BF00042BC
:1022D0009A421AD34E4A0BEB020353EA000208D18A
:1022E00022462B4600F022FE3246534600F0F6FC12
:1022F0000BD80220FFF770FAFFF71CFC0A4639469C
:1023000014B062F31E01BDE8F08D2BF0004041498E
:10231000414A01EB20514FF00008904223DD481C58
:102320004FF4801121FA00F05844C0F30A513B4A9F
:10233000A1F2FF317A443A4B1268CB4020EA030302
:10234000C0F3130040F4801CC1F114002CFA00F813
:10235000BBF1000FB8BFC8F100082046294600F0C5
:10236000E5FD04460D4622462B463046514600F018
:1023700011F94FF0000B5A462A4B58460A9100F0CB
:10238000AFFB00900991284A284B58460A9900F063
:10239000A7FBCDE9020122462B4658460A9900F0D8
:1023A000C5FD3246534600F0CFFC214A214B00F0D8
:1023B00097FBDDE9022300F0EDF806468A46099B0B
:1023C000009A00F0E7F804460D46099B009A33E0B6
:1023D000321800000000F03F701800009E17000047
:1023E0000000084009C7EE3FFD033ADCF5015B142D
:1023F000E02F3EBE761600003C1600000000F0BF45
:1024000000009040FE822B654715973C00CC904021
:1024100000346F3F01FCFFFF0000E03F5815000053
:10242000FFFF0F00432EE63F396CA80C615C20BE15
:10243000EF39FAFE422EE63F00F078FD3246534671
:1024400000F082FC06460B9122462B462046294688
:1024500000F046FB834602462E488A460B4605217D
:102460007844FFF711FB5A46534600F039FB2246E9
:102470002B4600F069FC82468B46324620462946B0
:102480000B9B00F02DFB32460B9B00F083F8CDE94F
:10249000080100224FF080435046594600F046FDA7
:1024A0000646039152465B462046294600F018FB3B
:1024B0003246039B00F028F9DDE9082300F036FDE1
:1024C00022462B4600F032FD0022134B00F03CFC6C
:1024D0000C46054601EB08510815002810DC424661
:1024E0002846214601F0E9F8FFF7BAFA042808BFA8
:1024F000FFF720FB42462846214601F0DEF805465C
:1025000006980B4614B02A463946BDE8F04D00F057
:10251000E7BA0000041400000000F03F2DE9F0418C
:1025200006460F4600F01CFC04000D4618BF0120B3
:10253000284320F00040C0F17F6010F1E0400ED54C
:10254000002E14BF01200020384320F00040C0F1CD
:102550007F6010F1E0405CBF0120FFF73DF92046AD
:102560002946BDE8F081000010B500290AD008789E
:10257000002807D005487844FFF72CFA002801D03E
:10258000002010BD0248784410BD00000E15000068
:102590000615000010B591EA030F48BF83F0004311
:1025A00000F1CC84841A71EB030E05D2121943EBAF
:1025B0000E03001B61EB0E01DFF820C14FEA11543E
:1025C000A4EB135E1CEA430F18BF9CEA445F71D072
:1025D00023EA0C03DEF1200C21EA045143F48013BA
:1025E00032D322FA0EFC10EB0C0023FA0EFC41EB66
:1025F0000C01CEF1200C03FA0CFC10EB0C0051F195
:102600000001B1F5801FCEF1200C32D201EB045154
:10261000BDE8104012FA0CF258BF7047401C38BF9A
:102620005FEA420218BF7047002814BF20F0010083
:1026300041F100014FEA410313F5001F38BF704715
:10264000A1F1C04100F044BB012A43EB0302AEF10B
:10265000200EDEF11F0C32BF4FF0000C23FA0EF3F8
:1026600010EB030041EB0451B4EB115FD0D0A1EBB0
:10267000045101F58011490801EB0451BDE81040F7
:102680005FEA30000CD350F1000038BF12FA0CFCA6
:1026900006D1C9E7401C38BF5FEA4202CAD1C3E78E
:1026A0004FEA410313F5001F38BF7047A1F1C04145
:1026B00000F00EBB9CEA445F08D0BDE8104011EA70
:1026C0005C0F04BF01F0004100207047BDE81040DE
:1026D00070B500F0AFFA00BF64FBBE3E0000E0FF43
:1026E00002494FF0000000F0B6BF00BF0000F87FC5
:1026F000491058BFC1F140415B1058BFC3F140437E
:102700008B42EFF3008070472DE9C04130B4DFF811
:10271000A0C23CEA111418BF3CEA131400F0EC808C
:1027200081EA03051CEA111444EAD57418BF1CEAB7
:10273000131500F0C780A4EB05044FF0004545EAEF
:10274000C12145EAC32341EA505143EA525304F1FF
:102750007F74994204F500344FEAC0204FEAC22248
:1027600008BF904200F09C804FEA13650FF24016BC
:10277000765D4FEA134506FB05F7C7F1807706FB48
:1027800007F74FEAD737A7FB03687642C8F58038CA
:10279000A7FB06CE38BFA8F1010807FB08E64FF0FB
:1027A000000EA6FB028CE6FB03CEDCF1000CCEF1A2
:1027B000004E38BFAEF1010EA6FB0C584FF00007DB
:1027C0004FF00005E6FB0E87A1FB08C6A0FB07CE75
:1027D00016EB0E0645F10005E1FB076515F1E04E2D
:1027E0007EBFA4F580345FEA46066D4116F180078E
:1027F00045F100054FEA17274FEA066647EA0567E5
:10280000A6F1DE46B6F1805F4FEA15251FD938469E
:1028100024F0010C05EBC471BCF1FE6F01EB0C114F
:1028200002D8F0BCBDE8008124425CBF01F5801EE7
:102830009EEAC47F02D4F0BCBDE80081244238D4B3
:10284000F0BCA1F1C041BDE8004100F041BA4FEA3F
:10285000D22242EA43524FEAD323A7FB02864FEA31
:10286000D02040EA415007FB03661EEA0E0F4FEAF4
:10287000D12105FB026658BFA6EB0056B6EB005609
:102880004FEA520E4EEAC37E18EB0E0E56EB530E75
:10289000BDD518EB02085E417F1C55F10005B6E777
:1028A0004FF480154FF000074FF000064FF000087E
:1028B000ADE7F0BC4FF0000001F1C04101F0004174
:1028C000BDE8008111EA0C1F0CEA131500D00CE0E2
:1028D00013EA0C1F00F025804FF00000F0BC81EAE5
:1028E000030101F00041BDE80081F0BCBDE80041FA
:1028F00081EA030100F0ECB9F0BCBDE8004170B51D
:1029000000F098F9097EFC3E00F007B881EA030167
:102910004FF0000001F00041704781EA030100F030
:10292000D7B9F0BCBDE800414FF000002149704725
:10293000FFFDFBF9F7F5F4F2F0EEEDEBE9E8E6E484
:10294000E3E1E0DEDDDBDAD8D7D5D4D3D1D0CFCD0B
:10295000CCCBCAC8C7C6C5C4C2C1C0BFBEBDBCBB44
:10296000BAB9B8B7B6B5B4B3B2B1B0AFAEADACAB3F
:10297000AAA9A8A8A7A6A5A4A3A3A2A1A09F9F9E19
:102980009D9C9C9B9A9999989797969595949393CB
:10299000929191908F8F8E8E8D8C8C8B8B8A898962
:1029A00088888787868585848483838282818180E5
:1029B0000000FF070000F87F4FEA1153A3F5806382
:1029C000D3F11E03A8BFD3F1200C08DB4FF0004267
:1029D00042EAC12252EA505232FA03F070470942E9
:1029E0000BD4102BC4BF0020704703F5787CBCF1DA
:1029F000FF3F05D04FF0FF3070474FF000007047A9
:102A000070B500F017F900BF49922480002070478C
:102A1000F0E710F0004248BF4042B0FA80F310FAED
:102A200003F10AD0C3F11D0303F580634FEA41505F
:102A300002EB035202EBD12170474FF000007047C8
:102A4000B0FA80F310FA03F10AD0C3F11D0303F5C5
:102A500080634FEA41504FEA035202EBD1217047A5
:102A60004FF000007047000051EA030C17D41CF52A
:102A7000801F58BFBCF5801F00F10680994218BF27
:102A8000704708BF9042704707D711F5801F58BFA5
:102A900013F5801F19D499427047894270471CF57D
:102AA000801F08D5BCF5801FF7D58B4218BF704733
:102AB00008BF824270474FF4001C1CEB410F38BF27
:102AC0001CEB430F01D28B42704770B500F0B2F897
:102AD000922449004FF000514FF08053FFF708BE99
:102AE000DFF848C170B51CEA111E1EBF1CEA1315A1
:102AF0009EEA0C0F95EA0C0F00F06F8081EA030448
:102B000023EA4C134EEAD47E21EA4C1141F48011A1
:102B100043F48013AE44A1FB024CA0FB0365AEF16D
:102B20007F7E361955EB0C05A1FB034C4CF10003DD
:102B3000A0FB021C16EB0C06654153F10003094291
:102B400018BF46F0010613F4007F0BD14FEA0331A2
:102B50004FEA0530340341EA155140EA16506FF050
:102B600003020AE04FEAC3214FEAC520F40241EA1A
:102B7000555140EA56506FF0020202EB2E4201EB33
:102B8000025585EACE710AD05FEA440C18BF24F0E2
:102B9000004450F1000041F1000120EAD47040F2FD
:102BA000FE7C624500D270BDA84214BF4FF0804445
:102BB0004FF04044002E08BF0024BEF1806FA8BF34
:102BC000A1F1C041BDE8704080F282804FF000006A
:102BD00001F1C04101F0004170479EEA0C0F0CEA80
:102BE000131518BF95EA0C0F06D04FF0000081EACC
:102BF000030E0EF0004170BD00F01CF88900013E8C
:102C000000F007B800F009B84FEA430C5FEA5C5CDB
:102C100008D081EA030100F05BB84FEA410C5FEA9B
:102C20005C5CF6D14FF00000014970470000FF07DF
:102C30000000F87F0EF1020E2EF0030E5EF8046B1A
:102C4000364205D4012A43EB030515F5001F12D8BF
:102C5000012841EB010C1CF5001F0CD80ED14FEAE6
:102C6000D17C15F5001F0CEB4C0C0CF1020C08BFCD
:102C70004CEBD37C04E04FF0080C01E04FEAD37C2E
:102C80000CEB4C0526FA05F606F00706B6F1040C27
:102C900006D20EEB860CBDE870404CF0010C60478C
:102CA000DFE80CF0090B02024FF000414FF000008A
:102CB000A1F5002170BD19461046012851EB010411
:102CC00018BFD4F5001484BF002001F0004170BD8E
:102CD0000808A0F500114FEA3101704753EA010CD2
:102CE00017D41CF5801F58BFBCF5801F00F106806B
:102CF0008B4218BF704708BF8242704707D713F551
:102D0000801F58BF11F5801F19D48B4270479B421A
:102D100070471CF5801F08D5BCF5801FF7D5994278
:102D200018BF704708BF904270474FF4001C1CEB5F
:102D3000430F38BF1CEB410F01D2994270470FB4CB
:102D40000CBC03BCFFF7C1BE91EA030F10B581F0C4
:102D500000413FF527AC83F0004300F0EFB80000DE
:102D60002DE9F04101F5801CBCF5001FC0F2C380C5
:102D70004FEA115C21EA0C510CF1FD0C41F4801179
:102D80005FEA5C0C0CF5C07C01D3400049413DA4D6
:102D9000890241EA905187028E0E0A0CA45D04FB61
:102DA00004F602FB06F6C6F14046A4FB0662F60DE9
:102DB00046EA422606FB06F4A4FB01235242C3F175
:102DC000404338BF5B1EA6FB02420024E6FB0324FF
:102DD000D20B42EA4446A6FB0623A1FB02E2A3FB78
:102DE00007E4A4184FF0000252F10002E3FB014295
:102DF0006442C2F1404E38BFAEF1010EA6FB04237F
:102E00004FF00002E6FB0E32A2FB03464FF0000437
:102E1000B61954F10004E2FB0264A1FB06E6A4FB30
:102E200007E816EB08064FF0000858F10008E4FB2D
:102E300001687642C8F1405838BFA8F10108A2FBEA
:102E400006E4A3FB08E52D194FF0000454F100043B
:102E5000E2FB0854A1FB05E6A7FB04E818EB060813
:102E60004FF0000656F10006E1FB048618F120053C
:102E700056F10006A809A8F11B08B10908F03F089F
:102E8000B8F10A0F40EA86601CD901EB0C51BDE88D
:102E9000F08100BFFCF5EEE8E2DDD8D3CFCBC7C3AD
:102EA000C0BDB9B6B4B1AEACA9A7A5A3A19F9D9B67
:102EB0009A9896959392908F8D8C8B89888786852A
:102EC00084838281A0FB006800FB01F208EB4208CA
:102ED000B8EB872807D5341858EB0104D5D5401C2A
:102EE00051F10001D1E7341A78EB0104CDD4401E32
:102EF00071F10001C9E75FEA4C0C5FEA9C5C0DD1FF
:102F000005D34FF0000001F00041BDE8F081BDE8BD
:102F1000F04170B5FFF78EFE6DDBFFBEBDE8F041FE
:102F20004FF00000004970470000F87F10B591EAAB
:102F3000030F48BF83F000433FF534AB841A71EBB5
:102F4000030E07D212198EF0004E43EB0E03001B46
:102F500061EB0E01DFF8A4C14FEA1154A4EB135E3C
:102F60001CEA430F18BF9CEA445F00F0B08023EADC
:102F70006C03524221EA0451C3EB6C0338BF5B1E61
:102F8000DEF1200C25D322FA0EFC10EB0C0043FAE4
:102F90000EFC41EB0C01CEF1200C03FA0CFC10EB03
:102FA0000C0051F10001CEF1200C29D401EB0451A9
:102FB000BDE8104012FA0CF258BF7047401C1CBF0D
:102FC000B2F1004F704700280CBF491C20F00100EF
:102FD000704712EB020C43EB030218BF4FF0010CD9
:102FE0004CEA4202AEF1200EDEF11E0C54D943FA37
:102FF0000EFC10EB0C0051F1FF31CEF11E0CD5D5BB
:103000000CF1010C12FA0CFC404141EB010101EB07
:10301000445E5FEA5E5E10D901EB0451BDE81040EA
:1030200010EBDC7038BFBCF1004F18BF70470028B0
:103030000CBF491C20F00100704730D24FEAD42E5B
:1030400011F5001124F400641BD0B1FA81F20B3A9F
:10305000A41AA41ED2F12003914030FA03F31943BD
:10306000904001EBCE71002C01EB0451BDE8104003
:10307000A8BF704701F1C0414FF0000001F00041CE
:103080007047B0FA80F310FA03F100D110BDE41AD2
:10309000173C4805C90AE4E701EB045110BD49108B
:1030A00001EB0451BDE810404FEA300002E04FF060
:1030B000000170474A0008BF0042F8D0B2F5001F77
:1030C00028BF704701F000414FF0000070479CEAB4
:1030D000445F07D0BDE8104011EA5C0F04BF002137
:1030E00000207047BDE8104070B5FFF7A3FD00BF9A
:1030F00040DFF63E83F00041104670470000E0FFDD
:1031000090EA010F48BF81F0004100F13682421A77
:103110003CBF801A89184FEAD0524FF07F4C1CEA0E
:10312000410FA2EBD15318BF9CEA026F00F03B8025
:103130004FF0004C4CEA00204CEA012121FA03FC3C
:1031400010EB0C0C1ED202F1FF325FEA1C2040EBA8
:10315000C25038BF70471CF07F0F4FEA400C18BFB9
:10316000BCF17F4F38BF7047C3F12003994008BFBF
:1031700020F00100BCF17F4F38BF7047A0F1C04084
:1031800000F0E4B94FEA3C00000A40EBC25028BF0F
:103190001CF0FF0F4FEA400CE6D018BFBCF17F4F88
:1031A00038BF7047EAE79CEA026F05D010EA5C0F6F
:1031B00008BF00F00040704710B500F07AF900BF7A
:1031C00064FBBE3E4FF47F0C1CEAD0121EBF1CEA0B
:1031D000D11392EA0C0F93EA0C0F00F0858090EA6D
:1031E000010F48BF42F4807240F4000C41F400002B
:1031F0002CF07F4120F07F4000B58142A2EB03021A
:103200000FF2081CACEB504EC0F100009EF800E03D
:103210004FEA4E0E00FB0EFC38BF49004FEA2C1C53
:1032200002F5FA020CFB0EF34FEACE1E4FEA112C08
:103230004FEAC1210EEB635E42EB22420EFB0CFC17
:103240004FEA1C5300FB03114FEA112C4FEA0131E6
:103250000EFB0CFC4FEADC4C00FB0C11C14228BFFA
:1032600009184CEB03335DF804EB10EB410143EB21
:10327000C250B2F57C0F38BF704729D512F0F00F5D
:103280001CBF00F1C04000F0004070470081828305
:103290008485868788898B8C8D8E8F919293959665
:1032A00097999A9C9D9FA0A2A3A5A7A8AAACAEB0EF
:1032B000B2B3B5B7B9BCBEC0C2C5C7C9CCCED1D4F4
:1032C000D7D9DCDFE2E6E9ECF0F3F7FAFE00000024
:1032D0004FEA400C0CF1807CBCF17E4F28BF704758
:1032E000B0F1C04000F032B990EA010F0CEAD113FE
:1032F00048BF42F48072624538BF634507D213F479
:103300007F0F16D080EA010000F00040704710B532
:1033100000F0CFF8097EFC3E00F005B880EA01001D
:1033200000F00040704780EA010000F0004000F02B
:103330000DB912F47F0F04BF0248704780EA010004
:1033400000F004B90000C07FC10DD1F19E0206DB80
:103350004FEA002343F0004323FA02F07047004293
:1033600007D54FEA4001B1F1FE4F02D24FF0000005
:10337000704710B500F09DF84992248000207047F6
:103380006FEA200070470000B0FA80F310FA03F2F1
:10339000C3F19D030AD0D90501EB1220530638BFB3
:1033A000704700F1010008BF20F0010070470000E5
:1033B0004FF47F0C1CEAD0121EBF1CEAD11392EA14
:1033C0000C0F93EA0C0F00F0478090EA010F48BF02
:1033D00042F480724FF0004C4CEA00204CEA01218C
:1033E00002EB0302A0FB0113A2F50002002918BFA3
:1033F00043F001035B0028BF4FEA330342EB224254
:103400005FEA132C4CEBC2502EBFBCEB436FB2F5FE
:103410007C0F70474FEA036CBCF1004F08BF20F0EF
:103420000100B2F57C0F38BF70470BD582F0FF0268
:1034300012F5803FC8BF704700F1C040D8BF00F010
:103440000040704700F5000C5FEA4C0C48BF704725
:10345000B0F1C04000F07AB890EA010F0CEAD11345
:1034600048BF42F48072624538BF634504D280EAA7
:10347000010000F00040704710B500F01AF800BFDE
:103480008900013E00F007B800F009B85FEA410C7E
:103490005FEA1C6C08D080EA010000F057B85FEAD0
:1034A000400C5FEA1C6CF6D14FF00040A0F58000A4
:1034B00070470EF1020E2EF0030E5EF8044B24420C
:1034C00004D44FEA4102B2F17F4F11D84FEA4003D2
:1034D000B3F17F4F0CD80ED14FEAD07CB2F17F4FC1
:1034E0000CEB4C0C0CF1020C08BF4CEBD17C04E053
:1034F0004FF0080C01E04FEAD17C0CEB4C0324FAAE
:1035000003F404F00704B4F1040C06D20EEB840CAF
:10351000BDE810404CF0010C6047DFE80CF00708F4
:1035200002024FF00040A0F5800010BD08464200A6
:1035300018BFD2F1807288BF00F0004010BD10B5F6
:10354000FEF788FA4FF00001016010BDFF2141EA4B
:10355000D050C005704780F0004090EA010F7FF521
:10356000D6AD81F0004100F008B8000090EA010FEC
:1035700048BF81F000413FF5CAAD421A04D882F03D
:103580000042A0EB020011444FEAD0524FF07F4CB2
:103590001CEA410FA2EBD15318BF9CEA026F4AD03C
:1035A0004FF0004C4CEA00204CEA012121FA03FCC8
:1035B000B0EB0C0C0FD412F0FE0F36D05FEA4C00CB
:1035C0001DD5001240EBC25038BF70471CF03F0FB2
:1035D00018BF70470BE0A2F101025FEA1C2040EB2C
:1035E000C25038BF70471CF07F0F18BF7047C3F13F
:1035F0002003994014BF401E20F00100704780084E
:103600004FEA122308BF7047B0FA80FCA2EB0C020D
:10361000CCF1280C60FA0CF093EA122F04BF00EBF7
:10362000C25070474FEAC3707047130A5FEADC105C
:1036300008BF7047F6E79CEA026F04D010EA5C0FFF
:1036400008BF0020704710B5FFF733FF40DFF63E9C
:1036500081F0004070470CF00F03092B08BF0820D1
:1036600000F05B800A2B0BD0082B18BF704708BFF7
:103670001CF0400F0AD04FF000004FF000017047DF
:103680001CF0400F18BF4FF0004070471CF0100FA7
:1036900008D020F0704300F07F4242EAD3014FEAA5
:1036A0004370704700F0604021F07F4242EA000220
:1036B00001F07F4040EA727070474FF0FF0C4CF40D
:1036C000E06C1CEA11531CBF9CEA030C9445C2BF7A
:1036D000DA4201EB02517047002B0DD0BCF1000F14
:1036E0000FD0002A01F00041A4BF41F0E04141F0B9
:1036F0007F614FF00000704701F000414FF0000083
:10370000704750EA01334FF09B0C18BF4CF0806CAF
:103710007EF4E6AFAFF3008070471CF4801F11D039
:103720001CF4E02F03D06FEACC31490070474FF012
:103730004050EFF3008222F0704242EA000282F32E
:10374000008870474FF000007047181818181818B4
:1037500018180808080808080808080800000000E9
:10376000543A000800000000000000003D1000086E
:103770003D3A00083D3A00082C3A000800000000DD
:10378000000000003D1000083D3A00083D3A0008E6
:10379000353A00080000000000000000D5100008C5
:1037A000413900086A3900082E3A00080300000079
:1037B000000000001111000898380008A439000822
:1037C0005E3A00080300000000000000111100082C
:1037D000ED380008A4390008593A0008010000003B
:1037E0000000000047140008CA3900083D3A0008EC
:1037F00000000000000000000000000000000000C9
:103800000000000000000000000000000000F03F89
:10381000000000000000F83F000000000000000071
:103820000000004003B8E23F00000000000000007C
:1038300006D0CF43EBFD4C3E033333333333E33F0A
:10384000FFAB6FDBB66DDB3F4D268F515555D53F36
:1038500001411DA96074D13F65DBC9934A86CD3F04
:10386000EF4E454A287ECA3F3E5555555555C53FF2
:1038700093BDBE166CC166BF2CDE25AF6A56113FE4
:10388000F16BD2C541BDBBBED0A4BE726937663EE6
:1038900000000000000000000A0D09586D6F64650B
:1038A0006D095B666F726D61747B4E414B2F4352A5
:1038B000437D5D092D0953746172742072657669C8
:1038C000657665207472616E73666F726D2E0D0A77
:1038D0000909586D6F64656D207265616409092D71
:1038E00009097265616420646174612E000A0D0922
:1038F0006C6F616478095B666F726D61747B4E41B9
:103900004B2F4352437D5D092D095374617274201E
:1039100072657669657665207472616E73666F7222
:103920006D2E0D0A0909586D6F64656D2072656111
:103930006409092D09097265616420646174612E4E
:103940000076657273696F6E092D09726561642076
:103950007468652076657273696F6E206F66207477
:103960006865207368656C6C2E00796F75206D61D9
:10397000792077616E7420746F206761696E20749E
:1039800068652076657273696F6E20696E666F6D0B
:103990006174696F6E206F66207468652073686556
:1039A0006C6C2E0055736520586D6F64656D2070CA
:1039B000726F746F636F6C20746F207265766965C7
:1039C00076652066696C65732E000A0D09626F6F5B
:1039D00074095B6C6F6164616464725D092D096CCC
:1039E0006F6164207468652061646472206F662072
:1039F00066697265776172652E0D0A0909626F6FDB
:103A000074092D094C6F61642074686520616464D9
:103A10007265737320307830383030393030302070
:103A200062792064656661756C742E003F00586D84
:103A30006F64656D0076657273696F6E0068656CA2
:103A4000702D646973706C61792068656C70206991
:103A50006E666F0068656C7000626F6F74006C6FEB
:103A600061647800943B000800000020980000008A
:103A70006C0100082C3C000898000020D01E0000BB
:103A8000880100081001000043000000F8FFFFFF5C
:103A90000040404040404040404041414141414061
:103AA0004040404040404040404040404040404016
:103AB00040050202020202020202020202020202A5
:103AC00002202020202020202020200202020202AA
:103AD0000202909090909090101010101010101002
:103AE000101010101010101010101010020202020E
:103AF0000202888888888888080808080808080852
:103B0000080808080808080808080808020202024D
:103B10004000000000000000000000000000000065
:103B20000000000000000000000000000000000095
:103B30000000000000000000000000000000000085
:103B40000000000000000000000000000000000075
:103B50000000000000000000000000000000000065
:103B60000000000000000000000000000000000055
:103B70000000000000000000000000000000000045
:103B80000000000000000000000000000000000035
:103B90000000000000000000000000000000000025
:103BA0000000000000000000000000000000000015
:103BB0000000000000000000000000000000000005
:103BC00000000000000000000000000000000000F5
:103BD00000000000000000000000000000000000E5
:103BE00000000000000000000000000000000000D5
:103BF00000000000000000000000000000000000C5
:103C000000000000000000000000000000000000B4
:103C100000000000000000000000000000000000A4
:0C3C200000000000010000000000000097
:0400000508000131BD
:00000001FF
